:100000000C942A000C9447000C9447000C94470071
:100010000C9447000C9447000C9447000C94470044
:100020000C9447000C9447000C9447000C94D400A7
:100030000C9447000C9447000C9447000C94470024
:100040000C9447000C9447000C9447000C94470014
:100050000C94470011241FBECFE5D4E0DEBFCDBF16
:1000600010E0A0E6B0E0E2E1F4E002C005900D92FD
:10007000A837B107D9F711E0A8E7B0E001C01D9299
:10008000A530B107E1F70E9438010C9407020C94E7
:1000900000008CB95E9BFECF0895982F92959F70BB
:1000A0009BBBC198C298C09AEFEFF5E33197F1F787
:1000B00000C00000C0988F708BBBC198C298C09AD6
:1000C0008FEF95E30197F1F700C00000C098089505
:1000D0009BB3282F22952F70907F922B9BBBC29AA7
:1000E000C198C09AEFEFF5E33197F1F700C0000037
:1000F000C0989BB38F70907F892B8BBBC29AC1989D
:10010000C09A8FEF95E30197F1F700C00000C09807
:100110000895CF93DF93EC018881882379F02196AD
:100120000E9468008FEF9FE5A3E081509040A040BF
:10013000E1F700C000008991882391F7DF91CF910A
:10014000089582E00E944D0088E20E944D0081E007
:100150000E944D008EE00E944D0086E00E944D00FE
:1001600080E80E944D000895CF93DF93EC018881D1
:10017000882381F0219690E00E9449008FEF9FE54F
:10018000A3E081509040A040E1F700C000008991B9
:10019000882389F7DF91CF91089587E489B988E9A9
:1001A0008AB986E880BD08951F920F920FB60F920C
:1001B00011248F939F93EF93FF938CB18093DC0076
:1001C00080917A0090917B00009709F048C080915F
:1001D000DC008432D9F41092DE001092DD0010921F
:1001E000810010928000E091DD00F091DE008091AE
:1001F000DC00EE57FF4F80838091DD009091DE00A0
:1002000001969093DE008093DD0029C08091DC0090
:100210008A3299F481E090E090937B0080937A0099
:100220008091DD009091DE009093810080938000AA
:100230001092DE001092DD0012C0E091DD00F0911E
:10024000DE008091DC00EE57FF4F80838091DD005F
:100250009091DE0001969093DE008093DD00FF9187
:10026000EF919F918F910F900FBE0F901F90189557
:10027000AF92BF92CF92DF92EF92FF920F931F93B4
:10028000CF93DF938FEF8ABB87E087BB0E94CD00BF
:100290000E94A100789480E690E00E94B400C7E03C
:1002A000D0E00F2EF2E8CF2EF0E0DF2EF02D02EEA0
:1002B00010E0C601BC2CA92E0F2EF6E7EF2EF0E0C1
:1002C000FF2EF02D80917A0090917B008130910576
:1002D000C9F71092E1001092E000D0937F00C09324
:1002E0007E00CE018C0D9D1DFC0180818093DF007E
:1002F000E199FECF6091DF0080E090E00E94FA017A
:1003000080E090E00E94F2010E9449008091DF00AD
:100310008C3271F58B2D9A2DB7010E94C601809108
:10032000E0009091E1008091E0009091E100843044
:100330009105DCF480E090E0B7010E94C601F8016D
:100340008083808190E00E9489008091E0009091FC
:10035000E10001969093E1008093E0008091E0003D
:100360009091E100843091052CF38AE00E944900CD
:1003700080917E0090917F00019690937F00809302
:100380007E00813291050CF09DCFACCF4CE750E060
:100390000E94CB010895FA01A191B081009719F450
:1003A0001097E1F0CD01DC01CD010D90002011F49A
:1003B000C00113C0FB012191222319F02015D9F7A8
:1003C000F3CFFB012191201519F41E92119606C05E
:1003D0002223C1F70D900020A1F7D001FA01A193CB
:1003E000B0830895E199FECF9FBB8EBBE09A992719
:1003F0008DB30895262FE199FECF9FBB8EBB2DBBF9
:100400000FB6F894E29AE19A0FBE01960895F89417
:02041000FFCF1C
:100412006C617469747564652C6C6F6E6769747550
:080422006465206973002C00E1
:00000001FF
